:107E00001F92CDB7DEB784B714BE83FDF2D0112424
:107E100085E08093810082E08093C00088E18093B8
:107E2000C10086E08093C20087E68093C400529A26
:107E30005A9889E2C9D0259A8AE020E33CEF91E084
:107E4000309385002093840096BBB09BFECF1D9A93
:107E5000A8958150A9F7612C712C13E001E025E071
:107E6000F22E31E1E32E97D0813469F494D08983E6
:107E7000B1D089818238F9F0813811F486E001C0EF
:107E800083E079D075C0823411F484E103C0853475
:107E900019F485E0A7D06CC0853549F47CD0D82E84
:107EA0007AD06D2C712C782A660C771C60C08635D0
:107EB00021F484E097D080E0E4CF843609F03AC022
:107EC00076D06C0168D0982EA12CBB24B39463D0DB
:107ED000F50181935F01F1E0CF1AD108C1F77AD0A3
:107EE00085E4981201C0FFCFF30117BFE89507B6EC
:107EF00000FCFDCFA301A0E0B1E08C9112969D01A2
:107F000021503109F901208190E0922BFA010C01F6
:107F100007BFE89511244E5F5F4FA038F1E0BF071F
:107F200061F7F301F7BEE89507B600FCFDCFE7BEA9
:107F3000E8951EC0843771F43AD06C012CD04AD039
:107F40005301F50185915F0116D0F1E0CF1AD108F8
:107F5000C1F70EC0853739F43DD08EE10CD085E9EC
:107F60000AD08FE08ECF813511F488E02DD032D049
:107F700080E101D078CF9091C00095FFFCCF906454
:107F80009093C0005A9A8093C6008091C00086FFEB
:107F9000FCCF5A9808958091C00087FFFCCF809154
:107FA000C00084FD01C0A8958091C6000895CF93BC
:107FB000F2DFC82FF0DF2C2F30E0322F2227A9016B
:107FC000482BCA01CF910895E0E6F0E098E1908354
:107FD00080830895E0DF803219F088E0F5DFFFCF7D
:107FE00084E1C9CFCF93C82FD6DFC150E9F7CF9135
:0E7FF000F1CF282E80E0E8DFEE27FF2709946E
:027FFE0001067A
:0400000300007E007B
:00000001FF
